{
  "address": "0x1314a4B28cD361F9bB19Da88198E5BB2AC8B4BD3",
  "abi": [
    {
      "inputs": [
        {
          "internalType": "string",
          "name": "_name",
          "type": "string"
        },
        {
          "internalType": "string",
          "name": "_symbol",
          "type": "string"
        },
        {
          "internalType": "uint256",
          "name": "_totalSupply",
          "type": "uint256"
        },
        {
          "internalType": "string",
          "name": "_currentURI",
          "type": "string"
        }
      ],
      "stateMutability": "nonpayable",
      "type": "constructor"
    },
    {
      "anonymous": false,
      "inputs": [
        {
          "indexed": true,
          "internalType": "address",
          "name": "owner",
          "type": "address"
        },
        {
          "indexed": true,
          "internalType": "address",
          "name": "approved",
          "type": "address"
        },
        {
          "indexed": true,
          "internalType": "uint256",
          "name": "tokenId",
          "type": "uint256"
        }
      ],
      "name": "Approval",
      "type": "event"
    },
    {
      "anonymous": false,
      "inputs": [
        {
          "indexed": true,
          "internalType": "address",
          "name": "owner",
          "type": "address"
        },
        {
          "indexed": true,
          "internalType": "address",
          "name": "operator",
          "type": "address"
        },
        {
          "indexed": false,
          "internalType": "bool",
          "name": "approved",
          "type": "bool"
        }
      ],
      "name": "ApprovalForAll",
      "type": "event"
    },
    {
      "anonymous": false,
      "inputs": [
        {
          "indexed": true,
          "internalType": "address",
          "name": "previousOwner",
          "type": "address"
        },
        {
          "indexed": true,
          "internalType": "address",
          "name": "newOwner",
          "type": "address"
        }
      ],
      "name": "OwnershipTransferred",
      "type": "event"
    },
    {
      "anonymous": false,
      "inputs": [
        {
          "indexed": true,
          "internalType": "address",
          "name": "from",
          "type": "address"
        },
        {
          "indexed": true,
          "internalType": "address",
          "name": "to",
          "type": "address"
        },
        {
          "indexed": true,
          "internalType": "uint256",
          "name": "tokenId",
          "type": "uint256"
        }
      ],
      "name": "Transfer",
      "type": "event"
    },
    {
      "inputs": [
        {
          "internalType": "address",
          "name": "to",
          "type": "address"
        },
        {
          "internalType": "uint256",
          "name": "tokenId",
          "type": "uint256"
        }
      ],
      "name": "approve",
      "outputs": [],
      "stateMutability": "nonpayable",
      "type": "function"
    },
    {
      "inputs": [
        {
          "internalType": "address",
          "name": "owner",
          "type": "address"
        }
      ],
      "name": "balanceOf",
      "outputs": [
        {
          "internalType": "uint256",
          "name": "",
          "type": "uint256"
        }
      ],
      "stateMutability": "view",
      "type": "function"
    },
    {
      "inputs": [],
      "name": "currentURI",
      "outputs": [
        {
          "internalType": "string",
          "name": "",
          "type": "string"
        }
      ],
      "stateMutability": "view",
      "type": "function"
    },
    {
      "inputs": [
        {
          "internalType": "uint256",
          "name": "tokenId",
          "type": "uint256"
        }
      ],
      "name": "getApproved",
      "outputs": [
        {
          "internalType": "address",
          "name": "",
          "type": "address"
        }
      ],
      "stateMutability": "view",
      "type": "function"
    },
    {
      "inputs": [
        {
          "internalType": "address",
          "name": "owner",
          "type": "address"
        },
        {
          "internalType": "address",
          "name": "operator",
          "type": "address"
        }
      ],
      "name": "isApprovedForAll",
      "outputs": [
        {
          "internalType": "bool",
          "name": "",
          "type": "bool"
        }
      ],
      "stateMutability": "view",
      "type": "function"
    },
    {
      "inputs": [
        {
          "internalType": "address",
          "name": "",
          "type": "address"
        }
      ],
      "name": "isClaimed",
      "outputs": [
        {
          "internalType": "bool",
          "name": "",
          "type": "bool"
        }
      ],
      "stateMutability": "view",
      "type": "function"
    },
    {
      "inputs": [],
      "name": "isPaused",
      "outputs": [
        {
          "internalType": "bool",
          "name": "",
          "type": "bool"
        }
      ],
      "stateMutability": "view",
      "type": "function"
    },
    {
      "inputs": [],
      "name": "mintSteps",
      "outputs": [
        {
          "internalType": "uint256",
          "name": "",
          "type": "uint256"
        }
      ],
      "stateMutability": "view",
      "type": "function"
    },
    {
      "inputs": [],
      "name": "name",
      "outputs": [
        {
          "internalType": "string",
          "name": "",
          "type": "string"
        }
      ],
      "stateMutability": "view",
      "type": "function"
    },
    {
      "inputs": [],
      "name": "nextMintId",
      "outputs": [
        {
          "internalType": "uint256",
          "name": "",
          "type": "uint256"
        }
      ],
      "stateMutability": "view",
      "type": "function"
    },
    {
      "inputs": [],
      "name": "owner",
      "outputs": [
        {
          "internalType": "address",
          "name": "",
          "type": "address"
        }
      ],
      "stateMutability": "view",
      "type": "function"
    },
    {
      "inputs": [
        {
          "internalType": "uint256",
          "name": "tokenId",
          "type": "uint256"
        }
      ],
      "name": "ownerOf",
      "outputs": [
        {
          "internalType": "address",
          "name": "",
          "type": "address"
        }
      ],
      "stateMutability": "view",
      "type": "function"
    },
    {
      "inputs": [
        {
          "internalType": "uint256",
          "name": "_mintCount",
          "type": "uint256"
        }
      ],
      "name": "pMint",
      "outputs": [
        {
          "internalType": "uint256",
          "name": "",
          "type": "uint256"
        }
      ],
      "stateMutability": "payable",
      "type": "function"
    },
    {
      "inputs": [],
      "name": "pMintPrice",
      "outputs": [
        {
          "internalType": "uint256",
          "name": "",
          "type": "uint256"
        }
      ],
      "stateMutability": "view",
      "type": "function"
    },
    {
      "inputs": [],
      "name": "renounceOwnership",
      "outputs": [],
      "stateMutability": "nonpayable",
      "type": "function"
    },
    {
      "inputs": [
        {
          "internalType": "address",
          "name": "from",
          "type": "address"
        },
        {
          "internalType": "address",
          "name": "to",
          "type": "address"
        },
        {
          "internalType": "uint256",
          "name": "tokenId",
          "type": "uint256"
        }
      ],
      "name": "safeTransferFrom",
      "outputs": [],
      "stateMutability": "nonpayable",
      "type": "function"
    },
    {
      "inputs": [
        {
          "internalType": "address",
          "name": "from",
          "type": "address"
        },
        {
          "internalType": "address",
          "name": "to",
          "type": "address"
        },
        {
          "internalType": "uint256",
          "name": "tokenId",
          "type": "uint256"
        },
        {
          "internalType": "bytes",
          "name": "_data",
          "type": "bytes"
        }
      ],
      "name": "safeTransferFrom",
      "outputs": [],
      "stateMutability": "nonpayable",
      "type": "function"
    },
    {
      "inputs": [
        {
          "internalType": "address",
          "name": "operator",
          "type": "address"
        },
        {
          "internalType": "bool",
          "name": "approved",
          "type": "bool"
        }
      ],
      "name": "setApprovalForAll",
      "outputs": [],
      "stateMutability": "nonpayable",
      "type": "function"
    },
    {
      "inputs": [
        {
          "internalType": "string",
          "name": "_currentURI",
          "type": "string"
        }
      ],
      "name": "setCurrentURI",
      "outputs": [],
      "stateMutability": "nonpayable",
      "type": "function"
    },
    {
      "inputs": [
        {
          "internalType": "uint256",
          "name": "_price",
          "type": "uint256"
        }
      ],
      "name": "setPMintPrice",
      "outputs": [],
      "stateMutability": "nonpayable",
      "type": "function"
    },
    {
      "inputs": [
        {
          "internalType": "bool",
          "name": "_isPaused",
          "type": "bool"
        }
      ],
      "name": "setPaused",
      "outputs": [],
      "stateMutability": "nonpayable",
      "type": "function"
    },
    {
      "inputs": [
        {
          "internalType": "uint256",
          "name": "_totalSupply",
          "type": "uint256"
        }
      ],
      "name": "setTotalSupply",
      "outputs": [],
      "stateMutability": "nonpayable",
      "type": "function"
    },
    {
      "inputs": [
        {
          "internalType": "bytes32",
          "name": "merkleRoot",
          "type": "bytes32"
        }
      ],
      "name": "setWLMerkleRoot",
      "outputs": [],
      "stateMutability": "nonpayable",
      "type": "function"
    },
    {
      "inputs": [
        {
          "internalType": "uint256",
          "name": "_price",
          "type": "uint256"
        }
      ],
      "name": "setWLMintPrice",
      "outputs": [],
      "stateMutability": "nonpayable",
      "type": "function"
    },
    {
      "inputs": [
        {
          "internalType": "bytes4",
          "name": "interfaceId",
          "type": "bytes4"
        }
      ],
      "name": "supportsInterface",
      "outputs": [
        {
          "internalType": "bool",
          "name": "",
          "type": "bool"
        }
      ],
      "stateMutability": "view",
      "type": "function"
    },
    {
      "inputs": [],
      "name": "symbol",
      "outputs": [
        {
          "internalType": "string",
          "name": "",
          "type": "string"
        }
      ],
      "stateMutability": "view",
      "type": "function"
    },
    {
      "inputs": [
        {
          "internalType": "uint256",
          "name": "tokenId",
          "type": "uint256"
        }
      ],
      "name": "tokenURI",
      "outputs": [
        {
          "internalType": "string",
          "name": "",
          "type": "string"
        }
      ],
      "stateMutability": "view",
      "type": "function"
    },
    {
      "inputs": [],
      "name": "totalSupply",
      "outputs": [
        {
          "internalType": "uint256",
          "name": "",
          "type": "uint256"
        }
      ],
      "stateMutability": "view",
      "type": "function"
    },
    {
      "inputs": [
        {
          "internalType": "address",
          "name": "from",
          "type": "address"
        },
        {
          "internalType": "address",
          "name": "to",
          "type": "address"
        },
        {
          "internalType": "uint256",
          "name": "tokenId",
          "type": "uint256"
        }
      ],
      "name": "transferFrom",
      "outputs": [],
      "stateMutability": "nonpayable",
      "type": "function"
    },
    {
      "inputs": [
        {
          "internalType": "address",
          "name": "newOwner",
          "type": "address"
        }
      ],
      "name": "transferOwnership",
      "outputs": [],
      "stateMutability": "nonpayable",
      "type": "function"
    },
    {
      "inputs": [],
      "name": "withdraw",
      "outputs": [],
      "stateMutability": "nonpayable",
      "type": "function"
    },
    {
      "inputs": [],
      "name": "wlMerkleRoot",
      "outputs": [
        {
          "internalType": "bytes32",
          "name": "",
          "type": "bytes32"
        }
      ],
      "stateMutability": "view",
      "type": "function"
    },
    {
      "inputs": [
        {
          "internalType": "bytes32[]",
          "name": "_merkleProof",
          "type": "bytes32[]"
        }
      ],
      "name": "wlMint",
      "outputs": [
        {
          "internalType": "uint256",
          "name": "",
          "type": "uint256"
        }
      ],
      "stateMutability": "payable",
      "type": "function"
    },
    {
      "inputs": [],
      "name": "wlMintPrice",
      "outputs": [
        {
          "internalType": "uint256",
          "name": "",
          "type": "uint256"
        }
      ],
      "stateMutability": "view",
      "type": "function"
    }
  ],
  "transactionHash": "0x4739a89aaeff0981e0a12a6b6742aa92522aa79a6d6f226b356d6d97eabb1d43",
  "args": [
    "PulseChainArt NFT",
    "PulseNFT",
    10000,
    "https://ipfs.io/ipfs/"
  ],
  "numDeployments": 1,
  "solcInputHash": "b5890c85f09a72c0ffa87f0e11469b2f",
  "bytecode": "0x60006009819055600a819055600b5560c0604052601560808190527f68747470733a2f2f697066732e696f2f697066732f000000000000000000000060a09081526200004f91600c919062000185565b506103e8600e55612710600f556010805460ff191660011790553480156200007657600080fd5b5060405162002c0838038062002c088339810160408190526200009991620002f8565b835184908490620000b290600090602085019062000185565b508051620000c890600190602084019062000185565b505050620000e5620000df6200011660201b60201c565b6200011a565b6001600855620000f5816200016c565b620000ff82600f55565b6010805460ff1916600117905550505050620003d0565b3390565b600780546001600160a01b038381166001600160a01b0319831681179093556040519116919082907f8be0079c531659141344cd1fd0a4f28419497f9722a3daafe3b4186f6b6457e090600090a35050565b80516200018190600c90602084019062000185565b5050565b828054620001939062000393565b90600052602060002090601f016020900481019282620001b7576000855562000202565b82601f10620001d257805160ff191683800117855562000202565b8280016001018555821562000202579182015b8281111562000202578251825591602001919060010190620001e5565b506200021092915062000214565b5090565b5b8082111562000210576000815560010162000215565b634e487b7160e01b600052604160045260246000fd5b600082601f8301126200025357600080fd5b81516001600160401b03808211156200027057620002706200022b565b604051601f8301601f19908116603f011681019082821181831017156200029b576200029b6200022b565b81604052838152602092508683858801011115620002b857600080fd5b600091505b83821015620002dc5785820183015181830184015290820190620002bd565b83821115620002ee5760008385830101525b9695505050505050565b600080600080608085870312156200030f57600080fd5b84516001600160401b03808211156200032757600080fd5b620003358883890162000241565b955060208701519150808211156200034c57600080fd5b6200035a8883890162000241565b94506040870151935060608701519150808211156200037857600080fd5b50620003878782880162000241565b91505092959194509250565b600181811c90821680620003a857607f821691505b60208210811415620003ca57634e487b7160e01b600052602260045260246000fd5b50919050565b61282880620003e06000396000f3fe6080604052600436106102195760003560e01c80637d44fd111161011d578063b4731716116100b0578063e1e62b021161007f578063f2fde38b11610064578063f2fde38b146105f7578063f7ea7a3d14610617578063fb0bc9d71461063757600080fd5b8063e1e62b021461058e578063e985e9c5146105ae57600080fd5b8063b473171614610518578063b88d4fde14610538578063c87b56dd14610558578063c985fded1461057857600080fd5b80639ccbcaac116100ec5780639ccbcaac146104b5578063a22cb465146104cb578063b0ea7dcf146104eb578063b187bd26146104fe57600080fd5b80637d44fd11146104325780638cc08025146104525780638da5cb5b1461048257806395d89b41146104a057600080fd5b80632c4e9fc6116101b05780636352211e1161017f57806370a082311161016457806370a08231146103ea578063710ea3dd1461040a578063715018a61461041d57600080fd5b80636352211e146103b45780636aa99da3146103d457600080fd5b80632c4e9fc6146103535780633ccfd60b1461036957806342842e0e1461037e57806354c06aee1461039e57600080fd5b80630a99ea98116101ec5780630a99ea98146102cf57806316c38b3c146102ef57806318160ddd1461030f57806323b872dd1461033357600080fd5b806301ffc9a71461021e57806306fdde0314610253578063081812fc14610275578063095ea7b3146102ad575b600080fd5b34801561022a57600080fd5b5061023e610239366004612216565b61064c565b60405190151581526020015b60405180910390f35b34801561025f57600080fd5b5061026861069e565b60405161024a919061228b565b34801561028157600080fd5b5061029561029036600461229e565b610730565b6040516001600160a01b03909116815260200161024a565b3480156102b957600080fd5b506102cd6102c83660046122d3565b6107ca565b005b3480156102db57600080fd5b506102cd6102ea36600461229e565b6108e0565b3480156102fb57600080fd5b506102cd61030a36600461230d565b61092d565b34801561031b57600080fd5b50610325600f5481565b60405190815260200161024a565b34801561033f57600080fd5b506102cd61034e366004612328565b610989565b34801561035f57600080fd5b50610325600a5481565b34801561037557600080fd5b506102cd610a10565b34801561038a57600080fd5b506102cd610399366004612328565b610a8b565b3480156103aa57600080fd5b50610325600d5481565b3480156103c057600080fd5b506102956103cf36600461229e565b610aa6565b3480156103e057600080fd5b5061032560095481565b3480156103f657600080fd5b50610325610405366004612364565b610b31565b61032561041836600461229e565b610bcb565b34801561042957600080fd5b506102cd610d38565b34801561043e57600080fd5b506102cd61044d36600461229e565b610d8c565b34801561045e57600080fd5b5061023e61046d366004612364565b60116020526000908152604090205460ff1681565b34801561048e57600080fd5b506007546001600160a01b0316610295565b3480156104ac57600080fd5b50610268610dd9565b3480156104c157600080fd5b50610325600b5481565b3480156104d757600080fd5b506102cd6104e636600461237f565b610de8565b6103256104f93660046123b2565b610df3565b34801561050a57600080fd5b5060105461023e9060ff1681565b34801561052457600080fd5b506102cd6105333660046124b3565b611069565b34801561054457600080fd5b506102cd6105533660046124fc565b6110ba565b34801561056457600080fd5b5061026861057336600461229e565b611148565b34801561058457600080fd5b50610325600e5481565b34801561059a57600080fd5b506102cd6105a936600461229e565b6112db565b3480156105ba57600080fd5b5061023e6105c9366004612578565b6001600160a01b03918216600090815260056020908152604080832093909416825291909152205460ff1690565b34801561060357600080fd5b506102cd610612366004612364565b611328565b34801561062357600080fd5b506102cd61063236600461229e565b6113f5565b34801561064357600080fd5b50610268611446565b60006001600160e01b031982166380ac58cd60e01b148061067d57506001600160e01b03198216635b5e139f60e01b145b8061069857506301ffc9a760e01b6001600160e01b03198316145b92915050565b6060600080546106ad906125a2565b80601f01602080910402602001604051908101604052809291908181526020018280546106d9906125a2565b80156107265780601f106106fb57610100808354040283529160200191610726565b820191906000526020600020905b81548152906001019060200180831161070957829003601f168201915b5050505050905090565b6000818152600260205260408120546001600160a01b03166107ae5760405162461bcd60e51b815260206004820152602c60248201527f4552433732313a20617070726f76656420717565727920666f72206e6f6e657860448201526b34b9ba32b73a103a37b5b2b760a11b60648201526084015b60405180910390fd5b506000908152600460205260409020546001600160a01b031690565b60006107d582610aa6565b9050806001600160a01b0316836001600160a01b031614156108435760405162461bcd60e51b815260206004820152602160248201527f4552433732313a20617070726f76616c20746f2063757272656e74206f776e656044820152603960f91b60648201526084016107a5565b336001600160a01b038216148061085f575061085f81336105c9565b6108d15760405162461bcd60e51b815260206004820152603860248201527f4552433732313a20617070726f76652063616c6c6572206973206e6f74206f7760448201527f6e6572206e6f7220617070726f76656420666f7220616c6c000000000000000060648201526084016107a5565b6108db83836114d4565b505050565b6007546001600160a01b031633146109285760405162461bcd60e51b815260206004820181905260248201526000805160206127fc83398151915260448201526064016107a5565b600b55565b6007546001600160a01b031633146109755760405162461bcd60e51b815260206004820181905260248201526000805160206127fc83398151915260448201526064016107a5565b6010805460ff191682151517905550565b50565b6109933382611542565b610a055760405162461bcd60e51b815260206004820152603160248201527f4552433732313a207472616e736665722063616c6c6572206973206e6f74206f60448201527f776e6572206e6f7220617070726f76656400000000000000000000000000000060648201526084016107a5565b6108db838383611638565b6007546001600160a01b03163314610a585760405162461bcd60e51b815260206004820181905260248201526000805160206127fc83398151915260448201526064016107a5565b6040514790339082156108fc029083906000818181858888f19350505050158015610a87573d6000803e3d6000fd5b5050565b6108db838383604051806020016040528060008152506110ba565b6000818152600260205260408120546001600160a01b0316806106985760405162461bcd60e51b815260206004820152602960248201527f4552433732313a206f776e657220717565727920666f72206e6f6e657869737460448201527f656e7420746f6b656e000000000000000000000000000000000000000000000060648201526084016107a5565b60006001600160a01b038216610baf5760405162461bcd60e51b815260206004820152602a60248201527f4552433732313a2062616c616e636520717565727920666f7220746865207a6560448201527f726f20616464726573730000000000000000000000000000000000000000000060648201526084016107a5565b506001600160a01b031660009081526003602052604090205490565b60105460009060ff1615610c525760405162461bcd60e51b815260206004820152604260248201527f4572726f723a20596f7520617265206e6f7420616c6c6f77656420746f206d6960448201527f6e7420756e74696c20746865206f776e657220737461727473204d696e74696e606482015261672160f01b608482015260a4016107a5565b600b548234610c6182846125f3565b1115610cbb5760405162461bcd60e51b815260206004820152602360248201527f4572726f723a2053656e74204554482076616c756520697320494e434f52524560448201526243542160e81b60648201526084016107a5565b60026008541415610d0e5760405162461bcd60e51b815260206004820152601f60248201527f5265656e7472616e637947756172643a207265656e7472616e742063616c6c0060448201526064016107a5565b6002600855610d1c846117ec565b6001600954610d2b9190612612565b6001600855949350505050565b6007546001600160a01b03163314610d805760405162461bcd60e51b815260206004820181905260248201526000805160206127fc83398151915260448201526064016107a5565b610d8a6000611953565b565b6007546001600160a01b03163314610dd45760405162461bcd60e51b815260206004820181905260248201526000805160206127fc83398151915260448201526064016107a5565b600d55565b6060600180546106ad906125a2565b610a873383836119a5565b60105460009060ff1615610e7a5760405162461bcd60e51b815260206004820152604260248201527f4572726f723a20596f7520617265206e6f7420616c6c6f77656420746f206d6960448201527f6e7420756e74696c20746865206f776e657220737461727473204d696e74696e606482015261672160f01b608482015260a4016107a5565b600a54600134610e8a82846125f3565b1115610ee45760405162461bcd60e51b815260206004820152602360248201527f4572726f723a2053656e74204554482076616c756520697320494e434f52524560448201526243542160e81b60648201526084016107a5565b8484610f5b82828080602002602001604051908101604052809392919081815260200183836020028082843760009201919091525050600d546040516bffffffffffffffffffffffff193360601b166020820152909250603401905060405160208183030381529060405280519060200120611a74565b610fcd5760405162461bcd60e51b815260206004820152602660248201527f4572726f723a2041646472657373206973204e4f542077686974656c6973746560448201527f642079657421000000000000000000000000000000000000000000000000000060648201526084016107a5565b600260085414156110205760405162461bcd60e51b815260206004820152601f60248201527f5265656e7472616e637947756172643a207265656e7472616e742063616c6c0060448201526064016107a5565b600260085561102f60016117ec565b336000908152601160205260409020805460ff191660019081179091556009546110599190612612565b6001600855979650505050505050565b6007546001600160a01b031633146110b15760405162461bcd60e51b815260206004820181905260248201526000805160206127fc83398151915260448201526064016107a5565b61098681611a8a565b6110c43383611542565b6111365760405162461bcd60e51b815260206004820152603160248201527f4552433732313a207472616e736665722063616c6c6572206973206e6f74206f60448201527f776e6572206e6f7220617070726f76656400000000000000000000000000000060648201526084016107a5565b61114284848484611a9d565b50505050565b6000818152600260205260409020546060906001600160a01b03166111d55760405162461bcd60e51b815260206004820152603160248201527f45524337323155524953746f726167653a2055524920717565727920666f722060448201527f6e6f6e6578697374656e7420746f6b656e00000000000000000000000000000060648201526084016107a5565b600082815260066020526040812080546111ee906125a2565b80601f016020809104026020016040519081016040528092919081815260200182805461121a906125a2565b80156112675780601f1061123c57610100808354040283529160200191611267565b820191906000526020600020905b81548152906001019060200180831161124a57829003601f168201915b50505050509050600061128560408051602081019091526000815290565b9050805160001415611298575092915050565b8151156112ca5780826040516020016112b2929190612645565b60405160208183030381529060405292505050919050565b6112d384611b1b565b949350505050565b6007546001600160a01b031633146113235760405162461bcd60e51b815260206004820181905260248201526000805160206127fc83398151915260448201526064016107a5565b600a55565b6007546001600160a01b031633146113705760405162461bcd60e51b815260206004820181905260248201526000805160206127fc83398151915260448201526064016107a5565b6001600160a01b0381166113ec5760405162461bcd60e51b815260206004820152602660248201527f4f776e61626c653a206e6577206f776e657220697320746865207a65726f206160448201527f646472657373000000000000000000000000000000000000000000000000000060648201526084016107a5565b61098681611953565b6007546001600160a01b0316331461143d5760405162461bcd60e51b815260206004820181905260248201526000805160206127fc83398151915260448201526064016107a5565b61098681600f55565b600c8054611453906125a2565b80601f016020809104026020016040519081016040528092919081815260200182805461147f906125a2565b80156114cc5780601f106114a1576101008083540402835291602001916114cc565b820191906000526020600020905b8154815290600101906020018083116114af57829003601f168201915b505050505081565b600081815260046020526040902080546001600160a01b0319166001600160a01b038416908117909155819061150982610aa6565b6001600160a01b03167f8c5be1e5ebec7d5bd14f71427d1e84f3dd0314c0f7b2291e5b200ac8c7c3b92560405160405180910390a45050565b6000818152600260205260408120546001600160a01b03166115bb5760405162461bcd60e51b815260206004820152602c60248201527f4552433732313a206f70657261746f7220717565727920666f72206e6f6e657860448201526b34b9ba32b73a103a37b5b2b760a11b60648201526084016107a5565b60006115c683610aa6565b9050806001600160a01b0316846001600160a01b0316148061160d57506001600160a01b0380821660009081526005602090815260408083209388168352929052205460ff165b806112d35750836001600160a01b031661162684610730565b6001600160a01b031614949350505050565b826001600160a01b031661164b82610aa6565b6001600160a01b0316146116c75760405162461bcd60e51b815260206004820152602560248201527f4552433732313a207472616e736665722066726f6d20696e636f72726563742060448201527f6f776e657200000000000000000000000000000000000000000000000000000060648201526084016107a5565b6001600160a01b0382166117295760405162461bcd60e51b8152602060048201526024808201527f4552433732313a207472616e7366657220746f20746865207a65726f206164646044820152637265737360e01b60648201526084016107a5565b6117346000826114d4565b6001600160a01b038316600090815260036020526040812080546001929061175d908490612612565b90915550506001600160a01b038216600090815260036020526040812080546001929061178b908490612674565b909155505060008181526002602052604080822080546001600160a01b0319166001600160a01b0386811691821790925591518493918716917fddf252ad1be2c89b69c2b068fc378daa952ba7f163c4a11628f55a4df523b3ef91a4505050565b600f546001826009546117ff9190612674565b6118099190612612565b106118565760405162461bcd60e51b815260206004820152601560248201527f4572726f723a20537570706c79206c696d69746564000000000000000000000060448201526064016107a5565b60105460ff16156118a95760405162461bcd60e51b815260206004820152601860248201527f4572726f723a204d696e74696e6720697320506175736564000000000000000060448201526064016107a5565b60005b8181101561191e576009546118c13382611c11565b6118f581600c6118d084611c2b565b6040516020016118e192919061268c565b604051602081830303815290604052611d41565b6009805490600061190583612733565b919050555050808061191690612733565b9150506118ac565b50600f54600954148061193e57506103e860095461193c9190612764565b155b15610986576010805460ff1916600117905550565b600780546001600160a01b038381166001600160a01b0319831681179093556040519116919082907f8be0079c531659141344cd1fd0a4f28419497f9722a3daafe3b4186f6b6457e090600090a35050565b816001600160a01b0316836001600160a01b03161415611a075760405162461bcd60e51b815260206004820152601960248201527f4552433732313a20617070726f766520746f2063616c6c65720000000000000060448201526064016107a5565b6001600160a01b03838116600081815260056020908152604080832094871680845294825291829020805460ff191686151590811790915591519182527f17307eab39ab6107e8899845ad3d59bd9653f200f220920489ca2b5937696c31910160405180910390a3505050565b600082611a818584611dea565b14949350505050565b8051610a8790600c906020840190612167565b611aa8848484611638565b611ab484848484611e5e565b6111425760405162461bcd60e51b815260206004820152603260248201527f4552433732313a207472616e7366657220746f206e6f6e20455243373231526560448201527131b2b4bb32b91034b6b83632b6b2b73a32b960711b60648201526084016107a5565b6000818152600260205260409020546060906001600160a01b0316611ba85760405162461bcd60e51b815260206004820152602f60248201527f4552433732314d657461646174613a2055524920717565727920666f72206e6f60448201527f6e6578697374656e7420746f6b656e000000000000000000000000000000000060648201526084016107a5565b6000611bbf60408051602081019091526000815290565b90506000815111611bdf5760405180602001604052806000815250611c0a565b80611be984611c2b565b604051602001611bfa929190612645565b6040516020818303038152906040525b9392505050565b610a87828260405180602001604052806000815250611fa7565b606081611c4f5750506040805180820190915260018152600360fc1b602082015290565b8160005b8115611c795780611c6381612733565b9150611c729050600a83612778565b9150611c53565b60008167ffffffffffffffff811115611c9457611c94612427565b6040519080825280601f01601f191660200182016040528015611cbe576020820181803683370190505b5090505b84156112d357611cd3600183612612565b9150611ce0600a86612764565b611ceb906030612674565b60f81b818381518110611d0057611d0061278c565b60200101907effffffffffffffffffffffffffffffffffffffffffffffffffffffffffffff1916908160001a905350611d3a600a86612778565b9450611cc2565b6000828152600260205260409020546001600160a01b0316611dcb5760405162461bcd60e51b815260206004820152602e60248201527f45524337323155524953746f726167653a2055524920736574206f66206e6f6e60448201527f6578697374656e7420746f6b656e00000000000000000000000000000000000060648201526084016107a5565b600082815260066020908152604090912082516108db92840190612167565b600081815b8451811015611e56576000858281518110611e0c57611e0c61278c565b60200260200101519050808311611e325760008381526020829052604090209250611e43565b600081815260208490526040902092505b5080611e4e81612733565b915050611def565b509392505050565b60006001600160a01b0384163b15611f9c57604051630a85bd0160e11b81526001600160a01b0385169063150b7a0290611ea29033908990889088906004016127a2565b6020604051808303816000875af1925050508015611edd575060408051601f3d908101601f19168201909252611eda918101906127de565b60015b611f82573d808015611f0b576040519150601f19603f3d011682016040523d82523d6000602084013e611f10565b606091505b508051611f7a5760405162461bcd60e51b815260206004820152603260248201527f4552433732313a207472616e7366657220746f206e6f6e20455243373231526560448201527131b2b4bb32b91034b6b83632b6b2b73a32b960711b60648201526084016107a5565b805181602001fd5b6001600160e01b031916630a85bd0160e11b1490506112d3565b506001949350505050565b611fb18383612025565b611fbe6000848484611e5e565b6108db5760405162461bcd60e51b815260206004820152603260248201527f4552433732313a207472616e7366657220746f206e6f6e20455243373231526560448201527131b2b4bb32b91034b6b83632b6b2b73a32b960711b60648201526084016107a5565b6001600160a01b03821661207b5760405162461bcd60e51b815260206004820181905260248201527f4552433732313a206d696e7420746f20746865207a65726f206164647265737360448201526064016107a5565b6000818152600260205260409020546001600160a01b0316156120e05760405162461bcd60e51b815260206004820152601c60248201527f4552433732313a20746f6b656e20616c7265616479206d696e7465640000000060448201526064016107a5565b6001600160a01b0382166000908152600360205260408120805460019290612109908490612674565b909155505060008181526002602052604080822080546001600160a01b0319166001600160a01b03861690811790915590518392907fddf252ad1be2c89b69c2b068fc378daa952ba7f163c4a11628f55a4df523b3ef908290a45050565b828054612173906125a2565b90600052602060002090601f01602090048101928261219557600085556121db565b82601f106121ae57805160ff19168380011785556121db565b828001600101855582156121db579182015b828111156121db5782518255916020019190600101906121c0565b506121e79291506121eb565b5090565b5b808211156121e757600081556001016121ec565b6001600160e01b03198116811461098657600080fd5b60006020828403121561222857600080fd5b8135611c0a81612200565b60005b8381101561224e578181015183820152602001612236565b838111156111425750506000910152565b60008151808452612277816020860160208601612233565b601f01601f19169290920160200192915050565b602081526000611c0a602083018461225f565b6000602082840312156122b057600080fd5b5035919050565b80356001600160a01b03811681146122ce57600080fd5b919050565b600080604083850312156122e657600080fd5b6122ef836122b7565b946020939093013593505050565b803580151581146122ce57600080fd5b60006020828403121561231f57600080fd5b611c0a826122fd565b60008060006060848603121561233d57600080fd5b612346846122b7565b9250612354602085016122b7565b9150604084013590509250925092565b60006020828403121561237657600080fd5b611c0a826122b7565b6000806040838503121561239257600080fd5b61239b836122b7565b91506123a9602084016122fd565b90509250929050565b600080602083850312156123c557600080fd5b823567ffffffffffffffff808211156123dd57600080fd5b818501915085601f8301126123f157600080fd5b81358181111561240057600080fd5b8660208260051b850101111561241557600080fd5b60209290920196919550909350505050565b634e487b7160e01b600052604160045260246000fd5b600067ffffffffffffffff8084111561245857612458612427565b604051601f8501601f19908116603f0116810190828211818310171561248057612480612427565b8160405280935085815286868601111561249957600080fd5b858560208301376000602087830101525050509392505050565b6000602082840312156124c557600080fd5b813567ffffffffffffffff8111156124dc57600080fd5b8201601f810184136124ed57600080fd5b6112d38482356020840161243d565b6000806000806080858703121561251257600080fd5b61251b856122b7565b9350612529602086016122b7565b925060408501359150606085013567ffffffffffffffff81111561254c57600080fd5b8501601f8101871361255d57600080fd5b61256c8782356020840161243d565b91505092959194509250565b6000806040838503121561258b57600080fd5b612594836122b7565b91506123a9602084016122b7565b600181811c908216806125b657607f821691505b602082108114156125d757634e487b7160e01b600052602260045260246000fd5b50919050565b634e487b7160e01b600052601160045260246000fd5b600081600019048311821515161561260d5761260d6125dd565b500290565b600082821015612624576126246125dd565b500390565b6000815161263b818560208601612233565b9290920192915050565b60008351612657818460208801612233565b83519083019061266b818360208801612233565b01949350505050565b60008219821115612687576126876125dd565b500190565b600080845481600182811c9150808316806126a857607f831692505b60208084108214156126c857634e487b7160e01b86526022600452602486fd5b8180156126dc57600181146126ed5761271a565b60ff1986168952848901965061271a565b60008b81526020902060005b868110156127125781548b8201529085019083016126f9565b505084890196505b50505050505061272a8185612629565b95945050505050565b6000600019821415612747576127476125dd565b5060010190565b634e487b7160e01b600052601260045260246000fd5b6000826127735761277361274e565b500690565b6000826127875761278761274e565b500490565b634e487b7160e01b600052603260045260246000fd5b60006001600160a01b038087168352808616602084015250836040830152608060608301526127d4608083018461225f565b9695505050505050565b6000602082840312156127f057600080fd5b8151611c0a8161220056fe4f776e61626c653a2063616c6c6572206973206e6f7420746865206f776e6572a164736f6c634300080a000a",
  "devdoc": {
    "kind": "dev",
    "methods": {
      "approve(address,uint256)": {
        "details": "See {IERC721-approve}."
      },
      "balanceOf(address)": {
        "details": "See {IERC721-balanceOf}."
      },
      "getApproved(uint256)": {
        "details": "See {IERC721-getApproved}."
      },
      "isApprovedForAll(address,address)": {
        "details": "See {IERC721-isApprovedForAll}."
      },
      "name()": {
        "details": "See {IERC721Metadata-name}."
      },
      "owner()": {
        "details": "Returns the address of the current owner."
      },
      "ownerOf(uint256)": {
        "details": "See {IERC721-ownerOf}."
      },
      "renounceOwnership()": {
        "details": "Leaves the contract without owner. It will not be possible to call `onlyOwner` functions anymore. Can only be called by the current owner. NOTE: Renouncing ownership will leave the contract without an owner, thereby removing any functionality that is only available to the owner."
      },
      "safeTransferFrom(address,address,uint256)": {
        "details": "See {IERC721-safeTransferFrom}."
      },
      "safeTransferFrom(address,address,uint256,bytes)": {
        "details": "See {IERC721-safeTransferFrom}."
      },
      "setApprovalForAll(address,bool)": {
        "details": "See {IERC721-setApprovalForAll}."
      },
      "supportsInterface(bytes4)": {
        "details": "See {IERC165-supportsInterface}."
      },
      "symbol()": {
        "details": "See {IERC721Metadata-symbol}."
      },
      "tokenURI(uint256)": {
        "details": "See {IERC721Metadata-tokenURI}."
      },
      "transferFrom(address,address,uint256)": {
        "details": "See {IERC721-transferFrom}."
      },
      "transferOwnership(address)": {
        "details": "Transfers ownership of the contract to a new account (`newOwner`). Can only be called by the current owner."
      }
    },
    "version": 1
  },
  "userdoc": {
    "kind": "user",
    "methods": {},
    "version": 1
  },
  "storageLayout": {
    "storage": [
      {
        "astId": 251,
        "contract": "contracts/PulseChainArtNFT.sol:PulseChainArtNFT",
        "label": "_name",
        "offset": 0,
        "slot": "0",
        "type": "t_string_storage"
      },
      {
        "astId": 253,
        "contract": "contracts/PulseChainArtNFT.sol:PulseChainArtNFT",
        "label": "_symbol",
        "offset": 0,
        "slot": "1",
        "type": "t_string_storage"
      },
      {
        "astId": 257,
        "contract": "contracts/PulseChainArtNFT.sol:PulseChainArtNFT",
        "label": "_owners",
        "offset": 0,
        "slot": "2",
        "type": "t_mapping(t_uint256,t_address)"
      },
      {
        "astId": 261,
        "contract": "contracts/PulseChainArtNFT.sol:PulseChainArtNFT",
        "label": "_balances",
        "offset": 0,
        "slot": "3",
        "type": "t_mapping(t_address,t_uint256)"
      },
      {
        "astId": 265,
        "contract": "contracts/PulseChainArtNFT.sol:PulseChainArtNFT",
        "label": "_tokenApprovals",
        "offset": 0,
        "slot": "4",
        "type": "t_mapping(t_uint256,t_address)"
      },
      {
        "astId": 271,
        "contract": "contracts/PulseChainArtNFT.sol:PulseChainArtNFT",
        "label": "_operatorApprovals",
        "offset": 0,
        "slot": "5",
        "type": "t_mapping(t_address,t_mapping(t_address,t_bool))"
      },
      {
        "astId": 1238,
        "contract": "contracts/PulseChainArtNFT.sol:PulseChainArtNFT",
        "label": "_tokenURIs",
        "offset": 0,
        "slot": "6",
        "type": "t_mapping(t_uint256,t_string_storage)"
      },
      {
        "astId": 7,
        "contract": "contracts/PulseChainArtNFT.sol:PulseChainArtNFT",
        "label": "_owner",
        "offset": 0,
        "slot": "7",
        "type": "t_address"
      },
      {
        "astId": 118,
        "contract": "contracts/PulseChainArtNFT.sol:PulseChainArtNFT",
        "label": "_status",
        "offset": 0,
        "slot": "8",
        "type": "t_uint256"
      },
      {
        "astId": 2046,
        "contract": "contracts/PulseChainArtNFT.sol:PulseChainArtNFT",
        "label": "nextMintId",
        "offset": 0,
        "slot": "9",
        "type": "t_uint256"
      },
      {
        "astId": 2049,
        "contract": "contracts/PulseChainArtNFT.sol:PulseChainArtNFT",
        "label": "wlMintPrice",
        "offset": 0,
        "slot": "10",
        "type": "t_uint256"
      },
      {
        "astId": 2052,
        "contract": "contracts/PulseChainArtNFT.sol:PulseChainArtNFT",
        "label": "pMintPrice",
        "offset": 0,
        "slot": "11",
        "type": "t_uint256"
      },
      {
        "astId": 2055,
        "contract": "contracts/PulseChainArtNFT.sol:PulseChainArtNFT",
        "label": "currentURI",
        "offset": 0,
        "slot": "12",
        "type": "t_string_storage"
      },
      {
        "astId": 2057,
        "contract": "contracts/PulseChainArtNFT.sol:PulseChainArtNFT",
        "label": "wlMerkleRoot",
        "offset": 0,
        "slot": "13",
        "type": "t_bytes32"
      },
      {
        "astId": 2060,
        "contract": "contracts/PulseChainArtNFT.sol:PulseChainArtNFT",
        "label": "mintSteps",
        "offset": 0,
        "slot": "14",
        "type": "t_uint256"
      },
      {
        "astId": 2063,
        "contract": "contracts/PulseChainArtNFT.sol:PulseChainArtNFT",
        "label": "totalSupply",
        "offset": 0,
        "slot": "15",
        "type": "t_uint256"
      },
      {
        "astId": 2066,
        "contract": "contracts/PulseChainArtNFT.sol:PulseChainArtNFT",
        "label": "isPaused",
        "offset": 0,
        "slot": "16",
        "type": "t_bool"
      },
      {
        "astId": 2070,
        "contract": "contracts/PulseChainArtNFT.sol:PulseChainArtNFT",
        "label": "isClaimed",
        "offset": 0,
        "slot": "17",
        "type": "t_mapping(t_address,t_bool)"
      }
    ],
    "types": {
      "t_address": {
        "encoding": "inplace",
        "label": "address",
        "numberOfBytes": "20"
      },
      "t_bool": {
        "encoding": "inplace",
        "label": "bool",
        "numberOfBytes": "1"
      },
      "t_bytes32": {
        "encoding": "inplace",
        "label": "bytes32",
        "numberOfBytes": "32"
      },
      "t_mapping(t_address,t_bool)": {
        "encoding": "mapping",
        "key": "t_address",
        "label": "mapping(address => bool)",
        "numberOfBytes": "32",
        "value": "t_bool"
      },
      "t_mapping(t_address,t_mapping(t_address,t_bool))": {
        "encoding": "mapping",
        "key": "t_address",
        "label": "mapping(address => mapping(address => bool))",
        "numberOfBytes": "32",
        "value": "t_mapping(t_address,t_bool)"
      },
      "t_mapping(t_address,t_uint256)": {
        "encoding": "mapping",
        "key": "t_address",
        "label": "mapping(address => uint256)",
        "numberOfBytes": "32",
        "value": "t_uint256"
      },
      "t_mapping(t_uint256,t_address)": {
        "encoding": "mapping",
        "key": "t_uint256",
        "label": "mapping(uint256 => address)",
        "numberOfBytes": "32",
        "value": "t_address"
      },
      "t_mapping(t_uint256,t_string_storage)": {
        "encoding": "mapping",
        "key": "t_uint256",
        "label": "mapping(uint256 => string)",
        "numberOfBytes": "32",
        "value": "t_string_storage"
      },
      "t_string_storage": {
        "encoding": "bytes",
        "label": "string",
        "numberOfBytes": "32"
      },
      "t_uint256": {
        "encoding": "inplace",
        "label": "uint256",
        "numberOfBytes": "32"
      }
    }
  }
}